{
  "contractName": "Vote",
  "abi": [
    {
      "inputs": [
        {
          "internalType": "string[]",
          "name": "candidatesNames",
          "type": "string[]"
        }
      ],
      "payable": false,
      "stateMutability": "nonpayable",
      "type": "constructor"
    },
    {
      "constant": true,
      "inputs": [],
      "name": "admin",
      "outputs": [
        {
          "internalType": "address",
          "name": "",
          "type": "address"
        }
      ],
      "payable": false,
      "stateMutability": "view",
      "type": "function"
    },
    {
      "constant": true,
      "inputs": [
        {
          "internalType": "uint256",
          "name": "",
          "type": "uint256"
        }
      ],
      "name": "candidates",
      "outputs": [
        {
          "internalType": "string",
          "name": "name",
          "type": "string"
        },
        {
          "internalType": "uint256",
          "name": "voteCount",
          "type": "uint256"
        }
      ],
      "payable": false,
      "stateMutability": "view",
      "type": "function"
    },
    {
      "constant": true,
      "inputs": [
        {
          "internalType": "address",
          "name": "",
          "type": "address"
        }
      ],
      "name": "voters",
      "outputs": [
        {
          "internalType": "uint256",
          "name": "voteNumber",
          "type": "uint256"
        },
        {
          "internalType": "bool",
          "name": "isVoted",
          "type": "bool"
        },
        {
          "internalType": "uint256",
          "name": "weight",
          "type": "uint256"
        },
        {
          "internalType": "address",
          "name": "delegate",
          "type": "address"
        }
      ],
      "payable": false,
      "stateMutability": "view",
      "type": "function"
    },
    {
      "constant": false,
      "inputs": [
        {
          "internalType": "address",
          "name": "addr",
          "type": "address"
        }
      ],
      "name": "giveVoteRight",
      "outputs": [],
      "payable": false,
      "stateMutability": "nonpayable",
      "type": "function"
    },
    {
      "constant": false,
      "inputs": [
        {
          "internalType": "address",
          "name": "_delegate",
          "type": "address"
        }
      ],
      "name": "findDelegate",
      "outputs": [],
      "payable": false,
      "stateMutability": "nonpayable",
      "type": "function"
    },
    {
      "constant": false,
      "inputs": [
        {
          "internalType": "uint256",
          "name": "voteNum",
          "type": "uint256"
        }
      ],
      "name": "vote",
      "outputs": [],
      "payable": false,
      "stateMutability": "nonpayable",
      "type": "function"
    },
    {
      "constant": true,
      "inputs": [],
      "name": "whoWin",
      "outputs": [
        {
          "internalType": "string",
          "name": "",
          "type": "string"
        },
        {
          "internalType": "uint256",
          "name": "",
          "type": "uint256"
        }
      ],
      "payable": false,
      "stateMutability": "view",
      "type": "function"
    }
  ],
  "bytecode": "0x60806040523480156200001157600080fd5b506040516200103e3803806200103e8339818101604052620000379190810190620002d0565b336000806101000a81548173ffffffffffffffffffffffffffffffffffffffff021916908373ffffffffffffffffffffffffffffffffffffffff16021790555060008090505b81518110156200012657620000916200012e565b6040518060400160405280848481518110620000a957fe5b60200260200101518152602001600081525090506001819080600181540180825580915050906001820390600052602060002090600202016000909192909190915060008201518160000190805190602001906200010992919062000148565b50602082015181600101555050505080806001019150506200007d565b5050620003cf565b604051806040016040528060608152602001600081525090565b828054600181600116156101000203166002900490600052602060002090601f016020900481019282601f106200018b57805160ff1916838001178555620001bc565b82800160010185558215620001bc579182015b82811115620001bb5782518255916020019190600101906200019e565b5b509050620001cb9190620001cf565b5090565b620001f491905b80821115620001f0576000816000905550600101620001d6565b5090565b90565b600082601f8301126200020957600080fd5b8151620002206200021a8262000343565b62000315565b9150818183526020840193506020810190508360005b838110156200026a57815186016200024f888262000274565b84526020840193506020830192505060018101905062000236565b5050505092915050565b600082601f8301126200028657600080fd5b81516200029d62000297826200036c565b62000315565b91508082526020830160208301858383011115620002ba57600080fd5b620002c783828462000399565b50505092915050565b600060208284031215620002e357600080fd5b600082015167ffffffffffffffff811115620002fe57600080fd5b6200030c84828501620001f7565b91505092915050565b6000604051905081810181811067ffffffffffffffff821117156200033957600080fd5b8060405250919050565b600067ffffffffffffffff8211156200035b57600080fd5b602082029050602081019050919050565b600067ffffffffffffffff8211156200038457600080fd5b601f19601f8301169050602081019050919050565b60005b83811015620003b95780820151818401526020810190506200039c565b83811115620003c9576000848401525b50505050565b610c5f80620003df6000396000f3fe608060405234801561001057600080fd5b506004361061007d5760003560e01c8063cdcac5231161005b578063cdcac52314610102578063e28a48fc1461011e578063f851a4401461013d578063fadf84a51461015b5761007d565b80630121b93f146100825780633477ee2e1461009e578063a3ec138d146100cf575b600080fd5b61009c600480360361009791908101906109b3565b610177565b005b6100b860048036036100b391908101906109b3565b610240565b6040516100c6929190610ac6565b60405180910390f35b6100e960048036036100e4919081019061098a565b610309565b6040516100f99493929190610af6565b60405180910390f35b61011c6004803603610117919081019061098a565b610366565b005b6101266106ba565b604051610134929190610a96565b60405180910390f35b6101456107f0565b6040516101529190610a7b565b60405180910390f35b6101756004803603610170919081019061098a565b610815565b005b6000600260003373ffffffffffffffffffffffffffffffffffffffff1673ffffffffffffffffffffffffffffffffffffffff1681526020019081526020016000209050600081600201541115806101dc57508060010160009054906101000a900460ff165b156101e657600080fd5b60018160010160006101000a81548160ff02191690831515021790555081816000018190555080600201546001838154811061021e57fe5b9060005260206000209060020201600101600082825401925050819055505050565b6001818154811061024d57fe5b9060005260206000209060020201600091509050806000018054600181600116156101000203166002900480601f0160208091040260200160405190810160405280929190818152602001828054600181600116156101000203166002900480156102f95780601f106102ce576101008083540402835291602001916102f9565b820191906000526020600020905b8154815290600101906020018083116102dc57829003601f168201915b5050505050908060010154905082565b60026020528060005260406000206000915090508060000154908060010160009054906101000a900460ff16908060020154908060030160009054906101000a900473ffffffffffffffffffffffffffffffffffffffff16905084565b6000600260003373ffffffffffffffffffffffffffffffffffffffff1673ffffffffffffffffffffffffffffffffffffffff1681526020019081526020016000209050600081600201541115806103cb57508060010160009054906101000a900460ff165b156103d557600080fd5b5b600073ffffffffffffffffffffffffffffffffffffffff16600260008473ffffffffffffffffffffffffffffffffffffffff1673ffffffffffffffffffffffffffffffffffffffff16815260200190815260200160002060030160009054906101000a900473ffffffffffffffffffffffffffffffffffffffff1673ffffffffffffffffffffffffffffffffffffffff161415801561050357503373ffffffffffffffffffffffffffffffffffffffff16600260008473ffffffffffffffffffffffffffffffffffffffff1673ffffffffffffffffffffffffffffffffffffffff16815260200190815260200160002060030160009054906101000a900473ffffffffffffffffffffffffffffffffffffffff1673ffffffffffffffffffffffffffffffffffffffff1614155b1561057257600260008373ffffffffffffffffffffffffffffffffffffffff1673ffffffffffffffffffffffffffffffffffffffff16815260200190815260200160002060030160009054906101000a900473ffffffffffffffffffffffffffffffffffffffff1691506103d6565b3373ffffffffffffffffffffffffffffffffffffffff168273ffffffffffffffffffffffffffffffffffffffff1614156105ab57600080fd5b60018160010160006101000a81548160ff021916908315150217905550818160030160006101000a81548173ffffffffffffffffffffffffffffffffffffffff021916908373ffffffffffffffffffffffffffffffffffffffff1602179055506000600260008473ffffffffffffffffffffffffffffffffffffffff1673ffffffffffffffffffffffffffffffffffffffff16815260200190815260200160002090508060010160009054906101000a900460ff161561069e578160020154600182600001548154811061067b57fe5b9060005260206000209060020201600101600082825401925050819055506106b5565b816002015481600201600082825401925050819055505b505050565b606060006060600080600090505b6001805490508110156107e35781600182815481106106e357fe5b90600052602060002090600202016001015411156107d6576001818154811061070857fe5b90600052602060002090600202016000018054600181600116156101000203166002900480601f0160208091040260200160405190810160405280929190818152602001828054600181600116156101000203166002900480156107ad5780601f10610782576101008083540402835291602001916107ad565b820191906000526020600020905b81548152906001019060200180831161079057829003601f168201915b50505050509250600181815481106107c157fe5b90600052602060002090600202016001015491505b80806001019150506106c8565b5081819350935050509091565b6000809054906101000a900473ffffffffffffffffffffffffffffffffffffffff1681565b3373ffffffffffffffffffffffffffffffffffffffff166000809054906101000a900473ffffffffffffffffffffffffffffffffffffffff1673ffffffffffffffffffffffffffffffffffffffff161461086e57600080fd5b6000600260008373ffffffffffffffffffffffffffffffffffffffff1673ffffffffffffffffffffffffffffffffffffffff16815260200190815260200160002060020154118061090b5750600260008273ffffffffffffffffffffffffffffffffffffffff1673ffffffffffffffffffffffffffffffffffffffff16815260200190815260200160002060010160009054906101000a900460ff165b1561091557600080fd5b6001600260008373ffffffffffffffffffffffffffffffffffffffff1673ffffffffffffffffffffffffffffffffffffffff1681526020019081526020016000206002018190555050565b60008135905061096f81610bee565b92915050565b60008135905061098481610c05565b92915050565b60006020828403121561099c57600080fd5b60006109aa84828501610960565b91505092915050565b6000602082840312156109c557600080fd5b60006109d384828501610975565b91505092915050565b6109e581610b62565b82525050565b6109f481610b74565b82525050565b6000610a0582610b46565b610a0f8185610b51565b9350610a1f818560208601610baa565b610a2881610bdd565b840191505092915050565b6000610a3e82610b3b565b610a488185610b51565b9350610a58818560208601610baa565b610a6181610bdd565b840191505092915050565b610a7581610ba0565b82525050565b6000602082019050610a9060008301846109dc565b92915050565b60006040820190508181036000830152610ab081856109fa565b9050610abf6020830184610a6c565b9392505050565b60006040820190508181036000830152610ae08185610a33565b9050610aef6020830184610a6c565b9392505050565b6000608082019050610b0b6000830187610a6c565b610b1860208301866109eb565b610b256040830185610a6c565b610b3260608301846109dc565b95945050505050565b600081519050919050565b600081519050919050565b600082825260208201905092915050565b6000610b6d82610b80565b9050919050565b60008115159050919050565b600073ffffffffffffffffffffffffffffffffffffffff82169050919050565b6000819050919050565b60005b83811015610bc8578082015181840152602081019050610bad565b83811115610bd7576000848401525b50505050565b6000601f19601f8301169050919050565b610bf781610b62565b8114610c0257600080fd5b50565b610c0e81610ba0565b8114610c1957600080fd5b5056fea365627a7a72315820ab73108a37691f16dd62468e336d8887352d346627d5c6dcba49121db61428bf6c6578706572696d656e74616cf564736f6c63430005100040",
  "source": "// SPDX-License-Identifier: MIT\r\npragma solidity >=0.4.0 <0.8.0;\r\npragma experimental ABIEncoderV2;\r\n\r\ncontract Vote {\r\n    //定义一个投票人结构体\r\n    struct Voter{\r\n        uint voteNumber; //给谁投票\r\n        bool isVoted; //是否已经投过票\r\n        uint weight; //投票权重\r\n        address delegate; //指定给谁代理投票\r\n    }\r\n\r\n    //定义一个候选人结构体\r\n    struct Candidate{\r\n        string name; //候选人名字\r\n        uint voteCount; //候选人得到的票数\r\n    }\r\n\r\n    address public admin;//管理者，负责给投票人授权，使之成为投票人\r\n\r\n    Candidate[] public candidates;  //投票人集合\r\n    mapping(address => Voter) public voters; //投票人集合\r\n\r\n    constructor (string[] memory candidatesNames) public{\r\n        admin=msg.sender;\r\n\r\n        //每个人的名字生成一个候选人，添加到候选人集合中 [\"aaa\",\"bbb\",\"ccc\",\"ddd\"]\r\n        for (uint i=0;i<candidatesNames.length;i++){\r\n            Candidate memory tmp = Candidate({name:candidatesNames[i],voteCount:0});\r\n            candidates.push(tmp);\r\n        }\r\n    }\r\n\r\n    //限定只有管理人才有添加投票人的权利\r\n    modifier amdinOnly(){\r\n        require(admin==msg.sender);\r\n        _;\r\n    }\r\n\r\n    //添加投票人\r\n    function giveVoteRight(address addr) amdinOnly public{\r\n        if (voters[addr].weight>0||voters[addr].isVoted){\r\n            revert();\r\n        }\r\n        voters[addr].weight=1;\r\n    }\r\n\r\n    //将投票权给代理人\r\n    function findDelegate(address _delegate)public{\r\n        Voter storage _voter=voters[msg.sender];\r\n\r\n        if (_voter.weight<=0||_voter.isVoted){\r\n            revert();\r\n        }\r\n        //轮询找到最终的代理人，并且代理人不能是自己，否则死循环；\r\n        while(voters[_delegate].delegate!=address(0)&&voters[_delegate].delegate!=msg.sender){\r\n            _delegate=voters[_delegate].delegate;\r\n        }\r\n\r\n        //代理如果是自己，退出；\r\n        require(_delegate!=msg.sender);\r\n\r\n        _voter.isVoted=true;\r\n        _voter.delegate=_delegate;\r\n\r\n        Voter storage finalDelegateVoter =voters[_delegate];\r\n        if (finalDelegateVoter.isVoted){\r\n            //如果代理人已经投过票，那么代理人投票的候选人票数加上自己的权重；\r\n            candidates[finalDelegateVoter.voteNumber].voteCount+=_voter.weight;\r\n        }else{\r\n            //否则，在代理人权重上加上自己的权重；\r\n            finalDelegateVoter.weight+=_voter.weight;\r\n        }\r\n    }\r\n    //投票\r\n    function vote(uint voteNum)public{\r\n        Voter storage voter=voters[msg.sender];\r\n\r\n        //不是候选人或者已经投过票，直接返回\r\n        if (voter.weight<=0||voter.isVoted){\r\n            revert();\r\n        }\r\n\r\n        voter.isVoted=true;\r\n        voter.voteNumber=voteNum;\r\n\r\n        candidates[voteNum].voteCount+=voter.weight;\r\n    }\r\n\r\n    function whoWin()public view returns(string memory,uint){\r\n        string memory winner;\r\n        uint winerVoteCount;\r\n\r\n        for (uint i=0;i<candidates.length;i++){\r\n            if (candidates[i].voteCount>winerVoteCount){\r\n              winner=candidates[i].name;\r\n              winerVoteCount=candidates[i].voteCount;\r\n            }\r\n        }\r\n      return (winner,winerVoteCount);\r\n    }\r\n}",
  "sourcePath": "C:/Goproject/src/github.com/truffle/vote/contracts/Vote.sol",
  "compiler": {
    "name": "solc",
    "version": "0.5.16+commit.9c3226ce.Emscripten.clang"
  },
  "schemaVersion": "3.3.2",
  "updatedAt": "2020-11-24T08:48:41.157Z",
  "networkType": "ethereum",
  "devdoc": {
    "methods": {}
  },
  "userdoc": {
    "methods": {}
  }
}